{
  "address": "0x4B981EE3b548CAB05e283dBEC0a764376ABCc8af",
  "abi": [
    {
      "inputs": [],
      "stateMutability": "nonpayable",
      "type": "constructor"
    },
    {
      "anonymous": false,
      "inputs": [
        {
          "indexed": true,
          "internalType": "uint256",
          "name": "tokenId",
          "type": "uint256"
        },
        {
          "indexed": true,
          "internalType": "address",
          "name": "viewer",
          "type": "address"
        },
        {
          "indexed": false,
          "internalType": "uint256",
          "name": "expiry",
          "type": "uint256"
        }
      ],
      "name": "AccessGranted",
      "type": "event"
    },
    {
      "anonymous": false,
      "inputs": [
        {
          "indexed": true,
          "internalType": "uint256",
          "name": "tokenId",
          "type": "uint256"
        },
        {
          "indexed": true,
          "internalType": "address",
          "name": "viewer",
          "type": "address"
        }
      ],
      "name": "AccessRevoked",
      "type": "event"
    },
    {
      "anonymous": false,
      "inputs": [
        {
          "indexed": true,
          "internalType": "address",
          "name": "owner",
          "type": "address"
        },
        {
          "indexed": true,
          "internalType": "address",
          "name": "approved",
          "type": "address"
        },
        {
          "indexed": true,
          "internalType": "uint256",
          "name": "tokenId",
          "type": "uint256"
        }
      ],
      "name": "Approval",
      "type": "event"
    },
    {
      "anonymous": false,
      "inputs": [
        {
          "indexed": true,
          "internalType": "address",
          "name": "owner",
          "type": "address"
        },
        {
          "indexed": true,
          "internalType": "address",
          "name": "operator",
          "type": "address"
        },
        {
          "indexed": false,
          "internalType": "bool",
          "name": "approved",
          "type": "bool"
        }
      ],
      "name": "ApprovalForAll",
      "type": "event"
    },
    {
      "anonymous": false,
      "inputs": [
        {
          "indexed": true,
          "internalType": "uint256",
          "name": "tokenId",
          "type": "uint256"
        },
        {
          "indexed": true,
          "internalType": "address",
          "name": "patient",
          "type": "address"
        },
        {
          "indexed": false,
          "internalType": "string",
          "name": "initialCid",
          "type": "string"
        }
      ],
      "name": "PatientRegistered",
      "type": "event"
    },
    {
      "anonymous": false,
      "inputs": [
        {
          "indexed": true,
          "internalType": "uint256",
          "name": "tokenId",
          "type": "uint256"
        },
        {
          "indexed": true,
          "internalType": "address",
          "name": "by",
          "type": "address"
        },
        {
          "indexed": false,
          "internalType": "string",
          "name": "cid",
          "type": "string"
        },
        {
          "indexed": false,
          "internalType": "string",
          "name": "note",
          "type": "string"
        }
      ],
      "name": "RecordAdded",
      "type": "event"
    },
    {
      "anonymous": false,
      "inputs": [
        {
          "indexed": true,
          "internalType": "bytes32",
          "name": "role",
          "type": "bytes32"
        },
        {
          "indexed": true,
          "internalType": "bytes32",
          "name": "previousAdminRole",
          "type": "bytes32"
        },
        {
          "indexed": true,
          "internalType": "bytes32",
          "name": "newAdminRole",
          "type": "bytes32"
        }
      ],
      "name": "RoleAdminChanged",
      "type": "event"
    },
    {
      "anonymous": false,
      "inputs": [
        {
          "indexed": true,
          "internalType": "bytes32",
          "name": "role",
          "type": "bytes32"
        },
        {
          "indexed": true,
          "internalType": "address",
          "name": "account",
          "type": "address"
        },
        {
          "indexed": true,
          "internalType": "address",
          "name": "sender",
          "type": "address"
        }
      ],
      "name": "RoleGranted",
      "type": "event"
    },
    {
      "anonymous": false,
      "inputs": [
        {
          "indexed": true,
          "internalType": "bytes32",
          "name": "role",
          "type": "bytes32"
        },
        {
          "indexed": true,
          "internalType": "address",
          "name": "account",
          "type": "address"
        },
        {
          "indexed": true,
          "internalType": "address",
          "name": "sender",
          "type": "address"
        }
      ],
      "name": "RoleRevoked",
      "type": "event"
    },
    {
      "anonymous": false,
      "inputs": [
        {
          "indexed": true,
          "internalType": "address",
          "name": "from",
          "type": "address"
        },
        {
          "indexed": true,
          "internalType": "address",
          "name": "to",
          "type": "address"
        },
        {
          "indexed": true,
          "internalType": "uint256",
          "name": "tokenId",
          "type": "uint256"
        }
      ],
      "name": "Transfer",
      "type": "event"
    },
    {
      "inputs": [],
      "name": "DEFAULT_ADMIN_ROLE",
      "outputs": [
        {
          "internalType": "bytes32",
          "name": "",
          "type": "bytes32"
        }
      ],
      "stateMutability": "view",
      "type": "function"
    },
    {
      "inputs": [],
      "name": "DOCTOR_ROLE",
      "outputs": [
        {
          "internalType": "bytes32",
          "name": "",
          "type": "bytes32"
        }
      ],
      "stateMutability": "view",
      "type": "function"
    },
    {
      "inputs": [],
      "name": "HOSPITAL_ROLE",
      "outputs": [
        {
          "internalType": "bytes32",
          "name": "",
          "type": "bytes32"
        }
      ],
      "stateMutability": "view",
      "type": "function"
    },
    {
      "inputs": [
        {
          "internalType": "uint256",
          "name": "",
          "type": "uint256"
        },
        {
          "internalType": "address",
          "name": "",
          "type": "address"
        }
      ],
      "name": "accessExpiry",
      "outputs": [
        {
          "internalType": "uint256",
          "name": "",
          "type": "uint256"
        }
      ],
      "stateMutability": "view",
      "type": "function"
    },
    {
      "inputs": [
        {
          "internalType": "uint256",
          "name": "tokenId",
          "type": "uint256"
        },
        {
          "internalType": "string",
          "name": "cid",
          "type": "string"
        },
        {
          "internalType": "string",
          "name": "note",
          "type": "string"
        }
      ],
      "name": "addRecord",
      "outputs": [],
      "stateMutability": "nonpayable",
      "type": "function"
    },
    {
      "inputs": [
        {
          "internalType": "address",
          "name": "to",
          "type": "address"
        },
        {
          "internalType": "uint256",
          "name": "tokenId",
          "type": "uint256"
        }
      ],
      "name": "approve",
      "outputs": [],
      "stateMutability": "nonpayable",
      "type": "function"
    },
    {
      "inputs": [
        {
          "internalType": "address",
          "name": "owner",
          "type": "address"
        }
      ],
      "name": "balanceOf",
      "outputs": [
        {
          "internalType": "uint256",
          "name": "",
          "type": "uint256"
        }
      ],
      "stateMutability": "view",
      "type": "function"
    },
    {
      "inputs": [
        {
          "internalType": "uint256",
          "name": "tokenId",
          "type": "uint256"
        }
      ],
      "name": "getApproved",
      "outputs": [
        {
          "internalType": "address",
          "name": "",
          "type": "address"
        }
      ],
      "stateMutability": "view",
      "type": "function"
    },
    {
      "inputs": [
        {
          "internalType": "bytes32",
          "name": "role",
          "type": "bytes32"
        }
      ],
      "name": "getRoleAdmin",
      "outputs": [
        {
          "internalType": "bytes32",
          "name": "",
          "type": "bytes32"
        }
      ],
      "stateMutability": "view",
      "type": "function"
    },
    {
      "inputs": [
        {
          "internalType": "uint256",
          "name": "tokenId",
          "type": "uint256"
        },
        {
          "internalType": "address",
          "name": "viewer",
          "type": "address"
        },
        {
          "internalType": "uint256",
          "name": "expiryTimestamp",
          "type": "uint256"
        }
      ],
      "name": "grantAccess",
      "outputs": [],
      "stateMutability": "nonpayable",
      "type": "function"
    },
    {
      "inputs": [
        {
          "internalType": "address",
          "name": "account",
          "type": "address"
        }
      ],
      "name": "grantDoctorRole",
      "outputs": [],
      "stateMutability": "nonpayable",
      "type": "function"
    },
    {
      "inputs": [
        {
          "internalType": "address",
          "name": "account",
          "type": "address"
        }
      ],
      "name": "grantHospitalRole",
      "outputs": [],
      "stateMutability": "nonpayable",
      "type": "function"
    },
    {
      "inputs": [
        {
          "internalType": "bytes32",
          "name": "role",
          "type": "bytes32"
        },
        {
          "internalType": "address",
          "name": "account",
          "type": "address"
        }
      ],
      "name": "grantRole",
      "outputs": [],
      "stateMutability": "nonpayable",
      "type": "function"
    },
    {
      "inputs": [
        {
          "internalType": "bytes32",
          "name": "role",
          "type": "bytes32"
        },
        {
          "internalType": "address",
          "name": "account",
          "type": "address"
        }
      ],
      "name": "hasRole",
      "outputs": [
        {
          "internalType": "bool",
          "name": "",
          "type": "bool"
        }
      ],
      "stateMutability": "view",
      "type": "function"
    },
    {
      "inputs": [
        {
          "internalType": "address",
          "name": "owner",
          "type": "address"
        },
        {
          "internalType": "address",
          "name": "operator",
          "type": "address"
        }
      ],
      "name": "isApprovedForAll",
      "outputs": [
        {
          "internalType": "bool",
          "name": "",
          "type": "bool"
        }
      ],
      "stateMutability": "view",
      "type": "function"
    },
    {
      "inputs": [],
      "name": "name",
      "outputs": [
        {
          "internalType": "string",
          "name": "",
          "type": "string"
        }
      ],
      "stateMutability": "view",
      "type": "function"
    },
    {
      "inputs": [
        {
          "internalType": "uint256",
          "name": "tokenId",
          "type": "uint256"
        }
      ],
      "name": "ownerOf",
      "outputs": [
        {
          "internalType": "address",
          "name": "",
          "type": "address"
        }
      ],
      "stateMutability": "view",
      "type": "function"
    },
    {
      "inputs": [
        {
          "internalType": "address",
          "name": "patient",
          "type": "address"
        },
        {
          "internalType": "string",
          "name": "initialCid",
          "type": "string"
        }
      ],
      "name": "registerPatient",
      "outputs": [
        {
          "internalType": "uint256",
          "name": "",
          "type": "uint256"
        }
      ],
      "stateMutability": "nonpayable",
      "type": "function"
    },
    {
      "inputs": [
        {
          "internalType": "bytes32",
          "name": "role",
          "type": "bytes32"
        },
        {
          "internalType": "address",
          "name": "account",
          "type": "address"
        }
      ],
      "name": "renounceRole",
      "outputs": [],
      "stateMutability": "nonpayable",
      "type": "function"
    },
    {
      "inputs": [
        {
          "internalType": "uint256",
          "name": "tokenId",
          "type": "uint256"
        },
        {
          "internalType": "address",
          "name": "viewer",
          "type": "address"
        }
      ],
      "name": "revokeAccess",
      "outputs": [],
      "stateMutability": "nonpayable",
      "type": "function"
    },
    {
      "inputs": [
        {
          "internalType": "bytes32",
          "name": "role",
          "type": "bytes32"
        },
        {
          "internalType": "address",
          "name": "account",
          "type": "address"
        }
      ],
      "name": "revokeRole",
      "outputs": [],
      "stateMutability": "nonpayable",
      "type": "function"
    },
    {
      "inputs": [
        {
          "internalType": "address",
          "name": "from",
          "type": "address"
        },
        {
          "internalType": "address",
          "name": "to",
          "type": "address"
        },
        {
          "internalType": "uint256",
          "name": "tokenId",
          "type": "uint256"
        }
      ],
      "name": "safeTransferFrom",
      "outputs": [],
      "stateMutability": "nonpayable",
      "type": "function"
    },
    {
      "inputs": [
        {
          "internalType": "address",
          "name": "from",
          "type": "address"
        },
        {
          "internalType": "address",
          "name": "to",
          "type": "address"
        },
        {
          "internalType": "uint256",
          "name": "tokenId",
          "type": "uint256"
        },
        {
          "internalType": "bytes",
          "name": "data",
          "type": "bytes"
        }
      ],
      "name": "safeTransferFrom",
      "outputs": [],
      "stateMutability": "nonpayable",
      "type": "function"
    },
    {
      "inputs": [
        {
          "internalType": "address",
          "name": "operator",
          "type": "address"
        },
        {
          "internalType": "bool",
          "name": "approved",
          "type": "bool"
        }
      ],
      "name": "setApprovalForAll",
      "outputs": [],
      "stateMutability": "nonpayable",
      "type": "function"
    },
    {
      "inputs": [
        {
          "internalType": "bytes4",
          "name": "interfaceId",
          "type": "bytes4"
        }
      ],
      "name": "supportsInterface",
      "outputs": [
        {
          "internalType": "bool",
          "name": "",
          "type": "bool"
        }
      ],
      "stateMutability": "view",
      "type": "function"
    },
    {
      "inputs": [],
      "name": "symbol",
      "outputs": [
        {
          "internalType": "string",
          "name": "",
          "type": "string"
        }
      ],
      "stateMutability": "view",
      "type": "function"
    },
    {
      "inputs": [
        {
          "internalType": "uint256",
          "name": "tokenId",
          "type": "uint256"
        }
      ],
      "name": "tokenURI",
      "outputs": [
        {
          "internalType": "string",
          "name": "",
          "type": "string"
        }
      ],
      "stateMutability": "view",
      "type": "function"
    },
    {
      "inputs": [
        {
          "internalType": "address",
          "name": "from",
          "type": "address"
        },
        {
          "internalType": "address",
          "name": "to",
          "type": "address"
        },
        {
          "internalType": "uint256",
          "name": "tokenId",
          "type": "uint256"
        }
      ],
      "name": "transferFrom",
      "outputs": [],
      "stateMutability": "nonpayable",
      "type": "function"
    },
    {
      "inputs": [
        {
          "internalType": "uint256",
          "name": "tokenId",
          "type": "uint256"
        }
      ],
      "name": "viewRecordHistory",
      "outputs": [
        {
          "components": [
            {
              "internalType": "string",
              "name": "cid",
              "type": "string"
            },
            {
              "internalType": "uint256",
              "name": "timestamp",
              "type": "uint256"
            },
            {
              "internalType": "address",
              "name": "addedBy",
              "type": "address"
            },
            {
              "internalType": "string",
              "name": "note",
              "type": "string"
            }
          ],
          "internalType": "struct HealthRecordNFT.RecordEntry[]",
          "name": "",
          "type": "tuple[]"
        }
      ],
      "stateMutability": "view",
      "type": "function"
    }
  ],
  "transactionHash": "0xa7e61c6881f2ec61841db97557647d5090cd2621851a693fa6e3f8d72aad002b",
  "args": [],
  "numDeployments": 1,
  "solcInputHash": "8978ee257f99780003a95370e3cff114",
  "bytecode": "0x60806040523480156200001157600080fd5b506040518060400160405280600f81526020016e1219585b1d1a149958dbdc99139195608a1b81525060405180604001604052806005815260200164121493919560da1b8152508160009081620000699190620001da565b506001620000788282620001da565b506200008a9150600090503362000090565b620002a6565b60008281526006602090815260408083206001600160a01b038516845290915290205460ff16620001315760008281526006602090815260408083206001600160a01b03851684529091529020805460ff19166001179055620000f03390565b6001600160a01b0316816001600160a01b0316837f2f8788117e7eff1d82e926ec794901d17c78024a50270940304540a733656f0d60405160405180910390a45b5050565b634e487b7160e01b600052604160045260246000fd5b600181811c908216806200016057607f821691505b6020821081036200018157634e487b7160e01b600052602260045260246000fd5b50919050565b601f821115620001d557600081815260208120601f850160051c81016020861015620001b05750805b601f850160051c820191505b81811015620001d157828155600101620001bc565b5050505b505050565b81516001600160401b03811115620001f657620001f662000135565b6200020e816200020784546200014b565b8462000187565b602080601f8311600181146200024657600084156200022d5750858301515b600019600386901b1c1916600185901b178555620001d1565b600085815260208120601f198616915b82811015620002775788860151825594840194600190910190840162000256565b5085821015620002965787850151600019600388901b60f8161c191681555b5050505050600190811b01905550565b61259380620002b66000396000f3fe608060405234801561001057600080fd5b50600436106101cf5760003560e01c80637ee756f211610104578063c252b003116100a2578063d9a5ec1b11610071578063d9a5ec1b1461040d578063e985e9c514610420578063f6ba66781461045c578063fec331f21461047157600080fd5b8063c252b003146103b4578063c87b56dd146103d4578063d547741f146103e7578063d603b284146103fa57600080fd5b806395d89b41116100de57806395d89b411461037e578063a217fddf14610386578063a22cb4651461038e578063b88d4fde146103a157600080fd5b80637ee756f2146103455780638048c2f01461035857806391d148541461036b57600080fd5b80632f2ff15d1161017157806336568abe1161014b57806336568abe146102f957806342842e0e1461030c5780636352211e1461031f57806370a082311461033257600080fd5b80632f2ff15d146102c05780632f5635cc146102d357806333f90dcd146102e657600080fd5b8063095ea7b3116101ad578063095ea7b31461023c57806322f850b31461025157806323b872dd1461028a578063248a9ca31461029d57600080fd5b806301ffc9a7146101d457806306fdde03146101fc578063081812fc14610211575b600080fd5b6101e76101e2366004611cd4565b610498565b60405190151581526020015b60405180910390f35b6102046104a9565b6040516101f39190611d41565b61022461021f366004611d54565b61053b565b6040516001600160a01b0390911681526020016101f3565b61024f61024a366004611d89565b610562565b005b61027c61025f366004611db3565b600960209081526000928352604080842090915290825290205481565b6040519081526020016101f3565b61024f610298366004611ddf565b61067c565b61027c6102ab366004611d54565b60009081526006602052604090206001015490565b61024f6102ce366004611db3565b6106ad565b61024f6102e1366004611e1b565b6106d2565b61024f6102f4366004611ee2565b61070b565b61024f610307366004611db3565b61092a565b61024f61031a366004611ddf565b6109a4565b61022461032d366004611d54565b6109bf565b61027c610340366004611e1b565b610a1f565b61024f610353366004611e1b565b610aa5565b61027c610366366004611f4f565b610ac8565b6101e7610379366004611db3565b610c0e565b610204610c39565b61027c600081565b61024f61039c366004611f9d565b610c48565b61024f6103af366004611fd9565b610c53565b6103c76103c2366004611d54565b610c8b565b6040516101f39190612055565b6102046103e2366004611d54565b610edc565b61024f6103f5366004611db3565b610f50565b61024f6104083660046120fb565b610f75565b61024f61041b366004611db3565b611073565b6101e761042e366004612120565b6001600160a01b03918216600090815260056020908152604080832093909416825291909152205460ff1690565b61027c60008051602061253e83398151915281565b61027c7f0af1dac7dea2fd7f7738119cec7df099dfad49aa9d2e7d17ba6b60f63ae7411f81565b60006104a38261115b565b92915050565b6060600080546104b89061214a565b80601f01602080910402602001604051908101604052809291908181526020018280546104e49061214a565b80156105315780601f1061050657610100808354040283529160200191610531565b820191906000526020600020905b81548152906001019060200180831161051457829003601f168201915b5050505050905090565b600061054682611180565b506000908152600460205260409020546001600160a01b031690565b600061056d826109bf565b9050806001600160a01b0316836001600160a01b0316036105df5760405162461bcd60e51b815260206004820152602160248201527f4552433732313a20617070726f76616c20746f2063757272656e74206f776e656044820152603960f91b60648201526084015b60405180910390fd5b336001600160a01b03821614806105fb57506105fb813361042e565b61066d5760405162461bcd60e51b815260206004820152603d60248201527f4552433732313a20617070726f76652063616c6c6572206973206e6f7420746f60448201527f6b656e206f776e6572206f7220617070726f76656420666f7220616c6c00000060648201526084016105d6565b61067783836111e2565b505050565b6106863382611250565b6106a25760405162461bcd60e51b81526004016105d690612184565b6106778383836112cf565b6000828152600660205260409020600101546106c881611433565b610677838361143d565b60006106dd81611433565b6107077f0af1dac7dea2fd7f7738119cec7df099dfad49aa9d2e7d17ba6b60f63ae7411f8361143d565b5050565b6000838152600260205260409020546001600160a01b031661073f5760405162461bcd60e51b81526004016105d6906121d1565b6107697f0af1dac7dea2fd7f7738119cec7df099dfad49aa9d2e7d17ba6b60f63ae7411f33610c0e565b156107d257600083815260096020908152604080832033845290915290205442106107cd5760405162461bcd60e51b8152602060048201526014602482015273446f63746f7220686173206e6f2061636365737360601b60448201526064016105d6565b610845565b6107ea60008051602061253e83398151915233610c0e565b6108455760405162461bcd60e51b815260206004820152602660248201527f4f6e6c7920646f63746f72206f7220686f73706974616c2063616e20616464206044820152651c9958dbdc9960d21b60648201526084016105d6565b6000838152600860209081526040808320815160808101835286815242818501523392810192909252606082018590528054600181018255908452919092208251600490920201908190610899908261224d565b506020820151600182015560408201516002820180546001600160a01b0319166001600160a01b03909216919091179055606082015160038201906108de908261224d565b505050336001600160a01b0316837f7e14ca5715e8f6059db218b48ed17b47f17c155583c1034916f2f6be22889f5b848460405161091d92919061230d565b60405180910390a3505050565b6001600160a01b038116331461099a5760405162461bcd60e51b815260206004820152602f60248201527f416363657373436f6e74726f6c3a2063616e206f6e6c792072656e6f756e636560448201526e103937b632b9903337b91039b2b63360891b60648201526084016105d6565b61070782826114c3565b61067783838360405180602001604052806000815250610c53565b6000818152600260205260408120546001600160a01b0316806104a35760405162461bcd60e51b8152602060048201526018602482015277115490cdcc8c4e881a5b9d985b1a59081d1bdad95b88125160421b60448201526064016105d6565b60006001600160a01b038216610a895760405162461bcd60e51b815260206004820152602960248201527f4552433732313a2061646472657373207a65726f206973206e6f7420612076616044820152683634b21037bbb732b960b91b60648201526084016105d6565b506001600160a01b031660009081526003602052604090205490565b6000610ab081611433565b61070760008051602061253e8339815191528361143d565b600060008051602061253e833981519152610ae281611433565b610af0600780546001019055565b6000610afb60075490565b9050610b07858261152a565b835115610bc4576000818152600860209081526040808320815160808101835288815242818501523381840152825180840190935260078352661a5b9a5d1a585b60ca1b8385015260608101929092528054600181018255908452919092208251600490920201908190610b7b908261224d565b506020820151600182015560408201516002820180546001600160a01b0319166001600160a01b0390921691909117905560608201516003820190610bc0908261224d565b5050505b846001600160a01b0316817fe960aa893775ad9187a8fc84e3a4750f46f677c7e4f410b0d77faad87596660386604051610bfe9190611d41565b60405180910390a3949350505050565b60009182526006602090815260408084206001600160a01b0393909316845291905290205460ff1690565b6060600180546104b89061214a565b610707338383611544565b610c5d3383611250565b610c795760405162461bcd60e51b81526004016105d690612184565b610c858484848461160a565b50505050565b6000818152600260205260409020546060906001600160a01b0316610cc25760405162461bcd60e51b81526004016105d6906121d1565b33610ccc836109bf565b6001600160a01b03161480610cf95750600082815260096020908152604080832033845290915290205442105b610d315760405162461bcd60e51b81526020600482015260096024820152684e6f2061636365737360b81b60448201526064016105d6565b600082815260086020908152604080832080548251818502810185019093528083529193909284015b82821015610ed15783829060005260206000209060040201604051806080016040529081600082018054610d8d9061214a565b80601f0160208091040260200160405190810160405280929190818152602001828054610db99061214a565b8015610e065780601f10610ddb57610100808354040283529160200191610e06565b820191906000526020600020905b815481529060010190602001808311610de957829003601f168201915b50505091835250506001820154602082015260028201546001600160a01b03166040820152600382018054606090920191610e409061214a565b80601f0160208091040260200160405190810160405280929190818152602001828054610e6c9061214a565b8015610eb95780601f10610e8e57610100808354040283529160200191610eb9565b820191906000526020600020905b815481529060010190602001808311610e9c57829003601f168201915b50505050508152505081526020019060010190610d5a565b505050509050919050565b6060610ee782611180565b6000610efe60408051602081019091526000815290565b90506000815111610f1e5760405180602001604052806000815250610f49565b80610f288461163d565b604051602001610f3992919061233b565b6040516020818303038152906040525b9392505050565b600082815260066020526040902060010154610f6b81611433565b61067783836114c3565b6000838152600260205260409020546001600160a01b0316610fa95760405162461bcd60e51b81526004016105d6906121d1565b33610fb3846109bf565b6001600160a01b0316146110095760405162461bcd60e51b815260206004820152601d60248201527f4f6e6c792070617469656e742063616e206772616e742061636365737300000060448201526064016105d6565b80156110155780611019565b6000195b60008481526009602090815260408083206001600160a01b038716808552925291829020929092555184907fc56e8aa8e9f4284830fd4657bc77d60640af2ec679f2099faf320ee4202ff4229061091d9085815260200190565b6000828152600260205260409020546001600160a01b03166110a75760405162461bcd60e51b81526004016105d6906121d1565b336110b1836109bf565b6001600160a01b0316146111075760405162461bcd60e51b815260206004820152601e60248201527f4f6e6c792070617469656e742063616e207265766f6b6520616363657373000060448201526064016105d6565b60008281526009602090815260408083206001600160a01b03851680855292528083206001905551909184917f125883b94692baebecad9f111ed97ffa626523bbbadc6b0ef85ee1b56b9e52d59190a35050565b60006001600160e01b03198216637965db0b60e01b14806104a357506104a3826116d0565b6000818152600260205260409020546001600160a01b03166111df5760405162461bcd60e51b8152602060048201526018602482015277115490cdcc8c4e881a5b9d985b1a59081d1bdad95b88125160421b60448201526064016105d6565b50565b600081815260046020526040902080546001600160a01b0319166001600160a01b0384169081179091558190611217826109bf565b6001600160a01b03167f8c5be1e5ebec7d5bd14f71427d1e84f3dd0314c0f7b2291e5b200ac8c7c3b92560405160405180910390a45050565b60008061125c836109bf565b9050806001600160a01b0316846001600160a01b031614806112a357506001600160a01b0380821660009081526005602090815260408083209388168352929052205460ff165b806112c75750836001600160a01b03166112bc8461053b565b6001600160a01b0316145b949350505050565b826001600160a01b03166112e2826109bf565b6001600160a01b0316146113085760405162461bcd60e51b81526004016105d69061236a565b6001600160a01b03821661136a5760405162461bcd60e51b8152602060048201526024808201527f4552433732313a207472616e7366657220746f20746865207a65726f206164646044820152637265737360e01b60648201526084016105d6565b826001600160a01b031661137d826109bf565b6001600160a01b0316146113a35760405162461bcd60e51b81526004016105d69061236a565b600081815260046020908152604080832080546001600160a01b03199081169091556001600160a01b0387811680865260038552838620805460001901905590871680865283862080546001019055868652600290945282852080549092168417909155905184937fddf252ad1be2c89b69c2b068fc378daa952ba7f163c4a11628f55a4df523b3ef91a4505050565b6111df8133611720565b6114478282610c0e565b6107075760008281526006602090815260408083206001600160a01b03851684529091529020805460ff1916600117905561147f3390565b6001600160a01b0316816001600160a01b0316837f2f8788117e7eff1d82e926ec794901d17c78024a50270940304540a733656f0d60405160405180910390a45050565b6114cd8282610c0e565b156107075760008281526006602090815260408083206001600160a01b0385168085529252808320805460ff1916905551339285917ff6391f5c32d9c69d2a47ea670b442974b53935d1edc7fd64eb21e047a839171b9190a45050565b610707828260405180602001604052806000815250611779565b816001600160a01b0316836001600160a01b0316036115a55760405162461bcd60e51b815260206004820152601960248201527f4552433732313a20617070726f766520746f2063616c6c65720000000000000060448201526064016105d6565b6001600160a01b03838116600081815260056020908152604080832094871680845294825291829020805460ff191686151590811790915591519182527f17307eab39ab6107e8899845ad3d59bd9653f200f220920489ca2b5937696c31910161091d565b6116158484846112cf565b611621848484846117ac565b610c855760405162461bcd60e51b81526004016105d6906123af565b6060600061164a836118ad565b600101905060008167ffffffffffffffff81111561166a5761166a611e36565b6040519080825280601f01601f191660200182016040528015611694576020820181803683370190505b5090508181016020015b600019016f181899199a1a9b1b9c1cb0b131b232b360811b600a86061a8153600a850494508461169e57509392505050565b60006001600160e01b031982166380ac58cd60e01b148061170157506001600160e01b03198216635b5e139f60e01b145b806104a357506301ffc9a760e01b6001600160e01b03198316146104a3565b61172a8282610c0e565b6107075761173781611985565b611742836020611997565b604051602001611753929190612401565b60408051601f198184030181529082905262461bcd60e51b82526105d691600401611d41565b6117838383611b33565b61179060008484846117ac565b6106775760405162461bcd60e51b81526004016105d6906123af565b60006001600160a01b0384163b156118a257604051630a85bd0160e11b81526001600160a01b0385169063150b7a02906117f0903390899088908890600401612476565b6020604051808303816000875af192505050801561182b575060408051601f3d908101601f19168201909252611828918101906124b3565b60015b611888573d808015611859576040519150601f19603f3d011682016040523d82523d6000602084013e61185e565b606091505b5080516000036118805760405162461bcd60e51b81526004016105d6906123af565b805181602001fd5b6001600160e01b031916630a85bd0160e11b1490506112c7565b506001949350505050565b60008072184f03e93ff9f4daa797ed6e38ed64bf6a1f0160401b83106118ec5772184f03e93ff9f4daa797ed6e38ed64bf6a1f0160401b830492506040015b6d04ee2d6d415b85acef81000000008310611918576d04ee2d6d415b85acef8100000000830492506020015b662386f26fc10000831061193657662386f26fc10000830492506010015b6305f5e100831061194e576305f5e100830492506008015b612710831061196257612710830492506004015b60648310611974576064830492506002015b600a83106104a35760010192915050565b60606104a36001600160a01b03831660145b606060006119a68360026124e6565b6119b19060026124fd565b67ffffffffffffffff8111156119c9576119c9611e36565b6040519080825280601f01601f1916602001820160405280156119f3576020820181803683370190505b509050600360fc1b81600081518110611a0e57611a0e612510565b60200101906001600160f81b031916908160001a905350600f60fb1b81600181518110611a3d57611a3d612510565b60200101906001600160f81b031916908160001a9053506000611a618460026124e6565b611a6c9060016124fd565b90505b6001811115611ae4576f181899199a1a9b1b9c1cb0b131b232b360811b85600f1660108110611aa057611aa0612510565b1a60f81b828281518110611ab657611ab6612510565b60200101906001600160f81b031916908160001a90535060049490941c93611add81612526565b9050611a6f565b508315610f495760405162461bcd60e51b815260206004820181905260248201527f537472696e67733a20686578206c656e67746820696e73756666696369656e7460448201526064016105d6565b6001600160a01b038216611b895760405162461bcd60e51b815260206004820181905260248201527f4552433732313a206d696e7420746f20746865207a65726f206164647265737360448201526064016105d6565b6000818152600260205260409020546001600160a01b031615611bee5760405162461bcd60e51b815260206004820152601c60248201527f4552433732313a20746f6b656e20616c7265616479206d696e7465640000000060448201526064016105d6565b6000818152600260205260409020546001600160a01b031615611c535760405162461bcd60e51b815260206004820152601c60248201527f4552433732313a20746f6b656e20616c7265616479206d696e7465640000000060448201526064016105d6565b6001600160a01b038216600081815260036020908152604080832080546001019055848352600290915280822080546001600160a01b0319168417905551839291907fddf252ad1be2c89b69c2b068fc378daa952ba7f163c4a11628f55a4df523b3ef908290a45050565b6001600160e01b0319811681146111df57600080fd5b600060208284031215611ce657600080fd5b8135610f4981611cbe565b60005b83811015611d0c578181015183820152602001611cf4565b50506000910152565b60008151808452611d2d816020860160208601611cf1565b601f01601f19169290920160200192915050565b602081526000610f496020830184611d15565b600060208284031215611d6657600080fd5b5035919050565b80356001600160a01b0381168114611d8457600080fd5b919050565b60008060408385031215611d9c57600080fd5b611da583611d6d565b946020939093013593505050565b60008060408385031215611dc657600080fd5b82359150611dd660208401611d6d565b90509250929050565b600080600060608486031215611df457600080fd5b611dfd84611d6d565b9250611e0b60208501611d6d565b9150604084013590509250925092565b600060208284031215611e2d57600080fd5b610f4982611d6d565b634e487b7160e01b600052604160045260246000fd5b600067ffffffffffffffff80841115611e6757611e67611e36565b604051601f8501601f19908116603f01168101908282118183101715611e8f57611e8f611e36565b81604052809350858152868686011115611ea857600080fd5b858560208301376000602087830101525050509392505050565b600082601f830112611ed357600080fd5b610f4983833560208501611e4c565b600080600060608486031215611ef757600080fd5b83359250602084013567ffffffffffffffff80821115611f1657600080fd5b611f2287838801611ec2565b93506040860135915080821115611f3857600080fd5b50611f4586828701611ec2565b9150509250925092565b60008060408385031215611f6257600080fd5b611f6b83611d6d565b9150602083013567ffffffffffffffff811115611f8757600080fd5b611f9385828601611ec2565b9150509250929050565b60008060408385031215611fb057600080fd5b611fb983611d6d565b915060208301358015158114611fce57600080fd5b809150509250929050565b60008060008060808587031215611fef57600080fd5b611ff885611d6d565b935061200660208601611d6d565b925060408501359150606085013567ffffffffffffffff81111561202957600080fd5b8501601f8101871361203a57600080fd5b61204987823560208401611e4c565b91505092959194509250565b60006020808301818452808551808352604092508286019150828160051b87010184880160005b838110156120ed57603f198984030185528151608081518186526120a282870182611d15565b838b0151878c0152898401516001600160a01b03168a8801526060938401518782039488019490945291506120d990508183611d15565b96890196945050509086019060010161207c565b509098975050505050505050565b60008060006060848603121561211057600080fd5b83359250611e0b60208501611d6d565b6000806040838503121561213357600080fd5b61213c83611d6d565b9150611dd660208401611d6d565b600181811c9082168061215e57607f821691505b60208210810361217e57634e487b7160e01b600052602260045260246000fd5b50919050565b6020808252602d908201527f4552433732313a2063616c6c6572206973206e6f7420746f6b656e206f776e6560408201526c1c881bdc88185c1c1c9bdd9959609a1b606082015260800190565b602080825260149082015273151bdad95b88191bd95cc81b9bdd08195e1a5cdd60621b604082015260600190565b601f82111561067757600081815260208120601f850160051c810160208610156122265750805b601f850160051c820191505b8181101561224557828155600101612232565b505050505050565b815167ffffffffffffffff81111561226757612267611e36565b61227b81612275845461214a565b846121ff565b602080601f8311600181146122b057600084156122985750858301515b600019600386901b1c1916600185901b178555612245565b600085815260208120601f198616915b828110156122df578886015182559484019460019091019084016122c0565b50858210156122fd5787850151600019600388901b60f8161c191681555b5050505050600190811b01905550565b6040815260006123206040830185611d15565b82810360208401526123328185611d15565b95945050505050565b6000835161234d818460208801611cf1565b835190830190612361818360208801611cf1565b01949350505050565b60208082526025908201527f4552433732313a207472616e736665722066726f6d20696e636f72726563742060408201526437bbb732b960d91b606082015260800190565b60208082526032908201527f4552433732313a207472616e7366657220746f206e6f6e20455243373231526560408201527131b2b4bb32b91034b6b83632b6b2b73a32b960711b606082015260800190565b7f416363657373436f6e74726f6c3a206163636f756e7420000000000000000000815260008351612439816017850160208801611cf1565b7001034b99036b4b9b9b4b733903937b6329607d1b601791840191820152835161246a816028840160208801611cf1565b01602801949350505050565b6001600160a01b03858116825284166020820152604081018390526080606082018190526000906124a990830184611d15565b9695505050505050565b6000602082840312156124c557600080fd5b8151610f4981611cbe565b634e487b7160e01b600052601160045260246000fd5b80820281158282048414176104a3576104a36124d0565b808201808211156104a3576104a36124d0565b634e487b7160e01b600052603260045260246000fd5b600081612535576125356124d0565b50600019019056fec8f5b4140cca307cd927e59cbeea8291bffeee228fc677f0fa059aef7b4dd8d5a2646970667358221220f0d850f0519a28163c4121c53ab461908ffb16b57a6e983da9869e4c21be306164736f6c63430008140033",
  "devdoc": {
    "events": {
      "Approval(address,address,uint256)": {
        "details": "Emitted when `owner` enables `approved` to manage the `tokenId` token."
      },
      "ApprovalForAll(address,address,bool)": {
        "details": "Emitted when `owner` enables or disables (`approved`) `operator` to manage all of its assets."
      },
      "RoleAdminChanged(bytes32,bytes32,bytes32)": {
        "details": "Emitted when `newAdminRole` is set as ``role``'s admin role, replacing `previousAdminRole` `DEFAULT_ADMIN_ROLE` is the starting admin for all roles, despite {RoleAdminChanged} not being emitted signaling this. _Available since v3.1._"
      },
      "RoleGranted(bytes32,address,address)": {
        "details": "Emitted when `account` is granted `role`. `sender` is the account that originated the contract call, an admin role bearer except when using {AccessControl-_setupRole}."
      },
      "RoleRevoked(bytes32,address,address)": {
        "details": "Emitted when `account` is revoked `role`. `sender` is the account that originated the contract call:   - if using `revokeRole`, it is the admin role bearer   - if using `renounceRole`, it is the role bearer (i.e. `account`)"
      },
      "Transfer(address,address,uint256)": {
        "details": "Emitted when `tokenId` token is transferred from `from` to `to`."
      }
    },
    "kind": "dev",
    "methods": {
      "approve(address,uint256)": {
        "details": "See {IERC721-approve}."
      },
      "balanceOf(address)": {
        "details": "See {IERC721-balanceOf}."
      },
      "getApproved(uint256)": {
        "details": "See {IERC721-getApproved}."
      },
      "getRoleAdmin(bytes32)": {
        "details": "Returns the admin role that controls `role`. See {grantRole} and {revokeRole}. To change a role's admin, use {_setRoleAdmin}."
      },
      "grantRole(bytes32,address)": {
        "details": "Grants `role` to `account`. If `account` had not been already granted `role`, emits a {RoleGranted} event. Requirements: - the caller must have ``role``'s admin role. May emit a {RoleGranted} event."
      },
      "hasRole(bytes32,address)": {
        "details": "Returns `true` if `account` has been granted `role`."
      },
      "isApprovedForAll(address,address)": {
        "details": "See {IERC721-isApprovedForAll}."
      },
      "name()": {
        "details": "See {IERC721Metadata-name}."
      },
      "ownerOf(uint256)": {
        "details": "See {IERC721-ownerOf}."
      },
      "renounceRole(bytes32,address)": {
        "details": "Revokes `role` from the calling account. Roles are often managed via {grantRole} and {revokeRole}: this function's purpose is to provide a mechanism for accounts to lose their privileges if they are compromised (such as when a trusted device is misplaced). If the calling account had been revoked `role`, emits a {RoleRevoked} event. Requirements: - the caller must be `account`. May emit a {RoleRevoked} event."
      },
      "revokeRole(bytes32,address)": {
        "details": "Revokes `role` from `account`. If `account` had been granted `role`, emits a {RoleRevoked} event. Requirements: - the caller must have ``role``'s admin role. May emit a {RoleRevoked} event."
      },
      "safeTransferFrom(address,address,uint256)": {
        "details": "See {IERC721-safeTransferFrom}."
      },
      "safeTransferFrom(address,address,uint256,bytes)": {
        "details": "See {IERC721-safeTransferFrom}."
      },
      "setApprovalForAll(address,bool)": {
        "details": "See {IERC721-setApprovalForAll}."
      },
      "symbol()": {
        "details": "See {IERC721Metadata-symbol}."
      },
      "tokenURI(uint256)": {
        "details": "See {IERC721Metadata-tokenURI}."
      },
      "transferFrom(address,address,uint256)": {
        "details": "See {IERC721-transferFrom}."
      }
    },
    "version": 1
  },
  "userdoc": {
    "kind": "user",
    "methods": {},
    "version": 1
  },
  "storageLayout": {
    "storage": [
      {
        "astId": 414,
        "contract": "contracts/YourContract.sol:HealthRecordNFT",
        "label": "_name",
        "offset": 0,
        "slot": "0",
        "type": "t_string_storage"
      },
      {
        "astId": 416,
        "contract": "contracts/YourContract.sol:HealthRecordNFT",
        "label": "_symbol",
        "offset": 0,
        "slot": "1",
        "type": "t_string_storage"
      },
      {
        "astId": 420,
        "contract": "contracts/YourContract.sol:HealthRecordNFT",
        "label": "_owners",
        "offset": 0,
        "slot": "2",
        "type": "t_mapping(t_uint256,t_address)"
      },
      {
        "astId": 424,
        "contract": "contracts/YourContract.sol:HealthRecordNFT",
        "label": "_balances",
        "offset": 0,
        "slot": "3",
        "type": "t_mapping(t_address,t_uint256)"
      },
      {
        "astId": 428,
        "contract": "contracts/YourContract.sol:HealthRecordNFT",
        "label": "_tokenApprovals",
        "offset": 0,
        "slot": "4",
        "type": "t_mapping(t_uint256,t_address)"
      },
      {
        "astId": 434,
        "contract": "contracts/YourContract.sol:HealthRecordNFT",
        "label": "_operatorApprovals",
        "offset": 0,
        "slot": "5",
        "type": "t_mapping(t_address,t_mapping(t_address,t_bool))"
      },
      {
        "astId": 24,
        "contract": "contracts/YourContract.sol:HealthRecordNFT",
        "label": "_roles",
        "offset": 0,
        "slot": "6",
        "type": "t_mapping(t_bytes32,t_struct(RoleData)19_storage)"
      },
      {
        "astId": 3154,
        "contract": "contracts/YourContract.sol:HealthRecordNFT",
        "label": "_tokenIds",
        "offset": 0,
        "slot": "7",
        "type": "t_struct(Counter)1834_storage"
      },
      {
        "astId": 3179,
        "contract": "contracts/YourContract.sol:HealthRecordNFT",
        "label": "_recordHistory",
        "offset": 0,
        "slot": "8",
        "type": "t_mapping(t_uint256,t_array(t_struct(RecordEntry)3173_storage)dyn_storage)"
      },
      {
        "astId": 3185,
        "contract": "contracts/YourContract.sol:HealthRecordNFT",
        "label": "accessExpiry",
        "offset": 0,
        "slot": "9",
        "type": "t_mapping(t_uint256,t_mapping(t_address,t_uint256))"
      }
    ],
    "types": {
      "t_address": {
        "encoding": "inplace",
        "label": "address",
        "numberOfBytes": "20"
      },
      "t_array(t_struct(RecordEntry)3173_storage)dyn_storage": {
        "base": "t_struct(RecordEntry)3173_storage",
        "encoding": "dynamic_array",
        "label": "struct HealthRecordNFT.RecordEntry[]",
        "numberOfBytes": "32"
      },
      "t_bool": {
        "encoding": "inplace",
        "label": "bool",
        "numberOfBytes": "1"
      },
      "t_bytes32": {
        "encoding": "inplace",
        "label": "bytes32",
        "numberOfBytes": "32"
      },
      "t_mapping(t_address,t_bool)": {
        "encoding": "mapping",
        "key": "t_address",
        "label": "mapping(address => bool)",
        "numberOfBytes": "32",
        "value": "t_bool"
      },
      "t_mapping(t_address,t_mapping(t_address,t_bool))": {
        "encoding": "mapping",
        "key": "t_address",
        "label": "mapping(address => mapping(address => bool))",
        "numberOfBytes": "32",
        "value": "t_mapping(t_address,t_bool)"
      },
      "t_mapping(t_address,t_uint256)": {
        "encoding": "mapping",
        "key": "t_address",
        "label": "mapping(address => uint256)",
        "numberOfBytes": "32",
        "value": "t_uint256"
      },
      "t_mapping(t_bytes32,t_struct(RoleData)19_storage)": {
        "encoding": "mapping",
        "key": "t_bytes32",
        "label": "mapping(bytes32 => struct AccessControl.RoleData)",
        "numberOfBytes": "32",
        "value": "t_struct(RoleData)19_storage"
      },
      "t_mapping(t_uint256,t_address)": {
        "encoding": "mapping",
        "key": "t_uint256",
        "label": "mapping(uint256 => address)",
        "numberOfBytes": "32",
        "value": "t_address"
      },
      "t_mapping(t_uint256,t_array(t_struct(RecordEntry)3173_storage)dyn_storage)": {
        "encoding": "mapping",
        "key": "t_uint256",
        "label": "mapping(uint256 => struct HealthRecordNFT.RecordEntry[])",
        "numberOfBytes": "32",
        "value": "t_array(t_struct(RecordEntry)3173_storage)dyn_storage"
      },
      "t_mapping(t_uint256,t_mapping(t_address,t_uint256))": {
        "encoding": "mapping",
        "key": "t_uint256",
        "label": "mapping(uint256 => mapping(address => uint256))",
        "numberOfBytes": "32",
        "value": "t_mapping(t_address,t_uint256)"
      },
      "t_string_storage": {
        "encoding": "bytes",
        "label": "string",
        "numberOfBytes": "32"
      },
      "t_struct(Counter)1834_storage": {
        "encoding": "inplace",
        "label": "struct Counters.Counter",
        "members": [
          {
            "astId": 1833,
            "contract": "contracts/YourContract.sol:HealthRecordNFT",
            "label": "_value",
            "offset": 0,
            "slot": "0",
            "type": "t_uint256"
          }
        ],
        "numberOfBytes": "32"
      },
      "t_struct(RecordEntry)3173_storage": {
        "encoding": "inplace",
        "label": "struct HealthRecordNFT.RecordEntry",
        "members": [
          {
            "astId": 3166,
            "contract": "contracts/YourContract.sol:HealthRecordNFT",
            "label": "cid",
            "offset": 0,
            "slot": "0",
            "type": "t_string_storage"
          },
          {
            "astId": 3168,
            "contract": "contracts/YourContract.sol:HealthRecordNFT",
            "label": "timestamp",
            "offset": 0,
            "slot": "1",
            "type": "t_uint256"
          },
          {
            "astId": 3170,
            "contract": "contracts/YourContract.sol:HealthRecordNFT",
            "label": "addedBy",
            "offset": 0,
            "slot": "2",
            "type": "t_address"
          },
          {
            "astId": 3172,
            "contract": "contracts/YourContract.sol:HealthRecordNFT",
            "label": "note",
            "offset": 0,
            "slot": "3",
            "type": "t_string_storage"
          }
        ],
        "numberOfBytes": "128"
      },
      "t_struct(RoleData)19_storage": {
        "encoding": "inplace",
        "label": "struct AccessControl.RoleData",
        "members": [
          {
            "astId": 16,
            "contract": "contracts/YourContract.sol:HealthRecordNFT",
            "label": "members",
            "offset": 0,
            "slot": "0",
            "type": "t_mapping(t_address,t_bool)"
          },
          {
            "astId": 18,
            "contract": "contracts/YourContract.sol:HealthRecordNFT",
            "label": "adminRole",
            "offset": 0,
            "slot": "1",
            "type": "t_bytes32"
          }
        ],
        "numberOfBytes": "64"
      },
      "t_uint256": {
        "encoding": "inplace",
        "label": "uint256",
        "numberOfBytes": "32"
      }
    }
  }
}